{
  "contractName": "DonationContract",
  "abi": [
    {
      "inputs": [
        {
          "internalType": "uint256",
          "name": "",
          "type": "uint256"
        }
      ],
      "name": "donations",
      "outputs": [
        {
          "internalType": "uint256",
          "name": "amount",
          "type": "uint256"
        },
        {
          "internalType": "address",
          "name": "donor",
          "type": "address"
        },
        {
          "internalType": "string",
          "name": "name",
          "type": "string"
        },
        {
          "internalType": "uint256",
          "name": "timestamp",
          "type": "uint256"
        }
      ],
      "stateMutability": "view",
      "type": "function"
    },
    {
      "inputs": [
        {
          "internalType": "string",
          "name": "name",
          "type": "string"
        }
      ],
      "name": "donate",
      "outputs": [],
      "stateMutability": "payable",
      "type": "function"
    },
    {
      "inputs": [],
      "name": "getDonations",
      "outputs": [
        {
          "components": [
            {
              "internalType": "uint256",
              "name": "amount",
              "type": "uint256"
            },
            {
              "internalType": "address",
              "name": "donor",
              "type": "address"
            },
            {
              "internalType": "string",
              "name": "name",
              "type": "string"
            },
            {
              "internalType": "uint256",
              "name": "timestamp",
              "type": "uint256"
            }
          ],
          "internalType": "struct DonationContract.Donation[]",
          "name": "",
          "type": "tuple[]"
        }
      ],
      "stateMutability": "view",
      "type": "function"
    },
    {
      "inputs": [],
      "name": "totalDonations",
      "outputs": [
        {
          "internalType": "uint256",
          "name": "",
          "type": "uint256"
        }
      ],
      "stateMutability": "view",
      "type": "function"
    }
  ],
  "bytecode": "0x608060405234801561000f575f80fd5b50610db28061001d5f395ff3fe60806040526004361061003e575f3560e01c8063b5aebc8014610042578063de2ed8931461005e578063e25f841614610088578063f8626af8146100b2575b5f80fd5b61005c600480360381019061005791906105e0565b6100f1565b005b348015610069575f80fd5b50610072610204565b60405161007f919061063f565b60405180910390f35b348015610093575f80fd5b5061009c610261565b6040516100a9919061083b565b60405180910390f35b3480156100bd575f80fd5b506100d860048036038101906100d39190610885565b6103b4565b6040516100e89493929190610907565b60405180910390f35b5f3411610133576040517f08c379a000000000000000000000000000000000000000000000000000000000815260040161012a906109c1565b60405180910390fd5b5f60405180608001604052803481526020013373ffffffffffffffffffffffffffffffffffffffff16815260200183815260200142815250908060018154018082558091505060019003905f5260205f2090600402015f909190919091505f820151815f01556020820151816001015f6101000a81548173ffffffffffffffffffffffffffffffffffffffff021916908373ffffffffffffffffffffffffffffffffffffffff16021790555060408201518160020190816101f49190610bd9565b5060608201518160030155505050565b5f805f90505f5b5f80549050811015610259575f818154811061022a57610229610ca8565b5b905f5260205f2090600402015f0154826102449190610d02565b9150808061025190610d35565b91505061020b565b508091505090565b60605f805480602002602001604051908101604052809291908181526020015f905b828210156103ab578382905f5260205f2090600402016040518060800160405290815f8201548152602001600182015f9054906101000a900473ffffffffffffffffffffffffffffffffffffffff1673ffffffffffffffffffffffffffffffffffffffff1673ffffffffffffffffffffffffffffffffffffffff16815260200160028201805461031290610a0c565b80601f016020809104026020016040519081016040528092919081815260200182805461033e90610a0c565b80156103895780601f1061036057610100808354040283529160200191610389565b820191905f5260205f20905b81548152906001019060200180831161036c57829003601f168201915b5050505050815260200160038201548152505081526020019060010190610283565b50505050905090565b5f81815481106103c2575f80fd5b905f5260205f2090600402015f91509050805f015490806001015f9054906101000a900473ffffffffffffffffffffffffffffffffffffffff169080600201805461040c90610a0c565b80601f016020809104026020016040519081016040528092919081815260200182805461043890610a0c565b80156104835780601f1061045a57610100808354040283529160200191610483565b820191905f5260205f20905b81548152906001019060200180831161046657829003601f168201915b5050505050908060030154905084565b5f604051905090565b5f80fd5b5f80fd5b5f80fd5b5f80fd5b5f601f19601f8301169050919050565b7f4e487b71000000000000000000000000000000000000000000000000000000005f52604160045260245ffd5b6104f2826104ac565b810181811067ffffffffffffffff82111715610511576105106104bc565b5b80604052505050565b5f610523610493565b905061052f82826104e9565b919050565b5f67ffffffffffffffff82111561054e5761054d6104bc565b5b610557826104ac565b9050602081019050919050565b828183375f83830152505050565b5f61058461057f84610534565b61051a565b9050828152602081018484840111156105a05761059f6104a8565b5b6105ab848285610564565b509392505050565b5f82601f8301126105c7576105c66104a4565b5b81356105d7848260208601610572565b91505092915050565b5f602082840312156105f5576105f461049c565b5b5f82013567ffffffffffffffff811115610612576106116104a0565b5b61061e848285016105b3565b91505092915050565b5f819050919050565b61063981610627565b82525050565b5f6020820190506106525f830184610630565b92915050565b5f81519050919050565b5f82825260208201905092915050565b5f819050602082019050919050565b61068a81610627565b82525050565b5f73ffffffffffffffffffffffffffffffffffffffff82169050919050565b5f6106b982610690565b9050919050565b6106c9816106af565b82525050565b5f81519050919050565b5f82825260208201905092915050565b5f5b838110156107065780820151818401526020810190506106eb565b5f8484015250505050565b5f61071b826106cf565b61072581856106d9565b93506107358185602086016106e9565b61073e816104ac565b840191505092915050565b5f608083015f83015161075e5f860182610681565b50602083015161077160208601826106c0565b50604083015184820360408601526107898282610711565b915050606083015161079e6060860182610681565b508091505092915050565b5f6107b48383610749565b905092915050565b5f602082019050919050565b5f6107d282610658565b6107dc8185610662565b9350836020820285016107ee85610672565b805f5b85811015610829578484038952815161080a85826107a9565b9450610815836107bc565b925060208a019950506001810190506107f1565b50829750879550505050505092915050565b5f6020820190508181035f83015261085381846107c8565b905092915050565b61086481610627565b811461086e575f80fd5b50565b5f8135905061087f8161085b565b92915050565b5f6020828403121561089a5761089961049c565b5b5f6108a784828501610871565b91505092915050565b6108b9816106af565b82525050565b5f82825260208201905092915050565b5f6108d9826106cf565b6108e381856108bf565b93506108f38185602086016106e9565b6108fc816104ac565b840191505092915050565b5f60808201905061091a5f830187610630565b61092760208301866108b0565b818103604083015261093981856108cf565b90506109486060830184610630565b95945050505050565b7f446f6e6174696f6e20616d6f756e742073686f756c64206265206772656174655f8201527f72207468616e2030000000000000000000000000000000000000000000000000602082015250565b5f6109ab6028836108bf565b91506109b682610951565b604082019050919050565b5f6020820190508181035f8301526109d88161099f565b9050919050565b7f4e487b71000000000000000000000000000000000000000000000000000000005f52602260045260245ffd5b5f6002820490506001821680610a2357607f821691505b602082108103610a3657610a356109df565b5b50919050565b5f819050815f5260205f209050919050565b5f6020601f8301049050919050565b5f82821b905092915050565b5f60088302610a987fffffffffffffffffffffffffffffffffffffffffffffffffffffffffffffffff82610a5d565b610aa28683610a5d565b95508019841693508086168417925050509392505050565b5f819050919050565b5f610add610ad8610ad384610627565b610aba565b610627565b9050919050565b5f819050919050565b610af683610ac3565b610b0a610b0282610ae4565b848454610a69565b825550505050565b5f90565b610b1e610b12565b610b29818484610aed565b505050565b5b81811015610b4c57610b415f82610b16565b600181019050610b2f565b5050565b601f821115610b9157610b6281610a3c565b610b6b84610a4e565b81016020851015610b7a578190505b610b8e610b8685610a4e565b830182610b2e565b50505b505050565b5f82821c905092915050565b5f610bb15f1984600802610b96565b1980831691505092915050565b5f610bc98383610ba2565b9150826002028217905092915050565b610be2826106cf565b67ffffffffffffffff811115610bfb57610bfa6104bc565b5b610c058254610a0c565b610c10828285610b50565b5f60209050601f831160018114610c41575f8415610c2f578287015190505b610c398582610bbe565b865550610ca0565b601f198416610c4f86610a3c565b5f5b82811015610c7657848901518255600182019150602085019450602081019050610c51565b86831015610c935784890151610c8f601f891682610ba2565b8355505b6001600288020188555050505b505050505050565b7f4e487b71000000000000000000000000000000000000000000000000000000005f52603260045260245ffd5b7f4e487b71000000000000000000000000000000000000000000000000000000005f52601160045260245ffd5b5f610d0c82610627565b9150610d1783610627565b9250828201905080821115610d2f57610d2e610cd5565b5b92915050565b5f610d3f82610627565b91507fffffffffffffffffffffffffffffffffffffffffffffffffffffffffffffffff8203610d7157610d70610cd5565b5b60018201905091905056fea2646970667358221220bd63f7e79c438b95b56954d52ee782165f675480be6c72543b4b22b25f39e71964736f6c63430008140033",
  "immutableReferences": {},
  "source": "pragma solidity ^0.8.0;\r\n\r\ncontract DonationContract {\r\n  struct Donation {\r\n    uint256 amount;\r\n    address donor;\r\n    string name;\r\n    uint256 timestamp;\r\n  }\r\n\r\n  Donation[] public donations;\r\n\r\n  function donate(string memory name) public payable {\r\n    require(msg.value > 0, \"Donation amount should be greater than 0\");\r\n    donations.push(Donation({\r\n      amount: msg.value,\r\n      donor: msg.sender,\r\n      name: name,\r\n      timestamp: block.timestamp\r\n    }));\r\n  }\r\n\r\n  function getDonations() public view returns (Donation[] memory) {\r\n    return donations;\r\n  }\r\n\r\n  function totalDonations() public view returns (uint256) {\r\n    uint256 total = 0;\r\n    for (uint256 i = 0; i < donations.length; i++) {\r\n      total += donations[i].amount;\r\n    }\r\n    return total;\r\n  }\r\n}\r\n",
  "sourcePath": "F:\\7COMm\\7comm-febraban\\backend\\contracts\\DonationContract.sol",
  "compiler": {
    "name": "solc",
    "version": "0.8.20+commit.a1b79de6.Emscripten.clang"
  },
  "schemaVersion": "3.4.14",
  "updatedAt": "2023-06-18T18:59:43.723Z",
  "devdoc": {
    "kind": "dev",
    "methods": {},
    "version": 1
  },
  "userdoc": {
    "kind": "user",
    "methods": {},
    "version": 1
  }
}