{
  "contractName": "Donations",
  "abi": [
    {
      "inputs": [
        {
          "internalType": "uint256",
          "name": "",
          "type": "uint256"
        }
      ],
      "name": "donations",
      "outputs": [
        {
          "internalType": "uint256",
          "name": "id",
          "type": "uint256"
        },
        {
          "internalType": "string",
          "name": "donorName",
          "type": "string"
        },
        {
          "internalType": "uint256",
          "name": "amount",
          "type": "uint256"
        }
      ],
      "stateMutability": "view",
      "type": "function"
    },
    {
      "inputs": [
        {
          "internalType": "string",
          "name": "_donorName",
          "type": "string"
        },
        {
          "internalType": "uint256",
          "name": "_amount",
          "type": "uint256"
        }
      ],
      "name": "donate",
      "outputs": [],
      "stateMutability": "nonpayable",
      "type": "function"
    },
    {
      "inputs": [
        {
          "internalType": "uint256",
          "name": "_id",
          "type": "uint256"
        }
      ],
      "name": "getDonation",
      "outputs": [
        {
          "internalType": "uint256",
          "name": "",
          "type": "uint256"
        },
        {
          "internalType": "string",
          "name": "",
          "type": "string"
        },
        {
          "internalType": "uint256",
          "name": "",
          "type": "uint256"
        }
      ],
      "stateMutability": "view",
      "type": "function"
    },
    {
      "inputs": [],
      "name": "getDonationCount",
      "outputs": [
        {
          "internalType": "uint256",
          "name": "",
          "type": "uint256"
        }
      ],
      "stateMutability": "view",
      "type": "function"
    }
  ],
  "bytecode": "0x608060405234801561000f575f80fd5b506109248061001d5f395ff3fe608060405234801561000f575f80fd5b506004361061004a575f3560e01c8063e55a62a81461004e578063ef07a81f1461006c578063efb21c591461009e578063f8626af8146100ba575b5f80fd5b6100566100ec565b604051610063919061032d565b60405180910390f35b61008660048036038101906100819190610381565b6100f7565b60405161009593929190610436565b60405180910390f35b6100b860048036038101906100b3919061059e565b6101e7565b005b6100d460048036038101906100cf9190610381565b61025b565b6040516100e393929190610436565b60405180910390f35b5f8080549050905090565b5f60605f805f858154811061010f5761010e6105f8565b5b905f5260205f2090600302016040518060600160405290815f820154815260200160018201805461013f90610652565b80601f016020809104026020016040519081016040528092919081815260200182805461016b90610652565b80156101b65780601f1061018d576101008083540402835291602001916101b6565b820191905f5260205f20905b81548152906001019060200180831161019957829003601f168201915b505050505081526020016002820154815250509050805f015181602001518260400151935093509350509193909250565b5f60405180606001604052805f80549050815260200184815260200183815250908060018154018082558091505060019003905f5260205f2090600302015f909190919091505f820151815f0155602082015181600101908161024a919061081f565b506040820151816002015550505050565b5f8181548110610269575f80fd5b905f5260205f2090600302015f91509050805f01549080600101805461028e90610652565b80601f01602080910402602001604051908101604052809291908181526020018280546102ba90610652565b80156103055780601f106102dc57610100808354040283529160200191610305565b820191905f5260205f20905b8154815290600101906020018083116102e857829003601f168201915b5050505050908060020154905083565b5f819050919050565b61032781610315565b82525050565b5f6020820190506103405f83018461031e565b92915050565b5f604051905090565b5f80fd5b5f80fd5b61036081610315565b811461036a575f80fd5b50565b5f8135905061037b81610357565b92915050565b5f602082840312156103965761039561034f565b5b5f6103a38482850161036d565b91505092915050565b5f81519050919050565b5f82825260208201905092915050565b5f5b838110156103e35780820151818401526020810190506103c8565b5f8484015250505050565b5f601f19601f8301169050919050565b5f610408826103ac565b61041281856103b6565b93506104228185602086016103c6565b61042b816103ee565b840191505092915050565b5f6060820190506104495f83018661031e565b818103602083015261045b81856103fe565b905061046a604083018461031e565b949350505050565b5f80fd5b5f80fd5b7f4e487b71000000000000000000000000000000000000000000000000000000005f52604160045260245ffd5b6104b0826103ee565b810181811067ffffffffffffffff821117156104cf576104ce61047a565b5b80604052505050565b5f6104e1610346565b90506104ed82826104a7565b919050565b5f67ffffffffffffffff82111561050c5761050b61047a565b5b610515826103ee565b9050602081019050919050565b828183375f83830152505050565b5f61054261053d846104f2565b6104d8565b90508281526020810184848401111561055e5761055d610476565b5b610569848285610522565b509392505050565b5f82601f83011261058557610584610472565b5b8135610595848260208601610530565b91505092915050565b5f80604083850312156105b4576105b361034f565b5b5f83013567ffffffffffffffff8111156105d1576105d0610353565b5b6105dd85828601610571565b92505060206105ee8582860161036d565b9150509250929050565b7f4e487b71000000000000000000000000000000000000000000000000000000005f52603260045260245ffd5b7f4e487b71000000000000000000000000000000000000000000000000000000005f52602260045260245ffd5b5f600282049050600182168061066957607f821691505b60208210810361067c5761067b610625565b5b50919050565b5f819050815f5260205f209050919050565b5f6020601f8301049050919050565b5f82821b905092915050565b5f600883026106de7fffffffffffffffffffffffffffffffffffffffffffffffffffffffffffffffff826106a3565b6106e886836106a3565b95508019841693508086168417925050509392505050565b5f819050919050565b5f61072361071e61071984610315565b610700565b610315565b9050919050565b5f819050919050565b61073c83610709565b6107506107488261072a565b8484546106af565b825550505050565b5f90565b610764610758565b61076f818484610733565b505050565b5b81811015610792576107875f8261075c565b600181019050610775565b5050565b601f8211156107d7576107a881610682565b6107b184610694565b810160208510156107c0578190505b6107d46107cc85610694565b830182610774565b50505b505050565b5f82821c905092915050565b5f6107f75f19846008026107dc565b1980831691505092915050565b5f61080f83836107e8565b9150826002028217905092915050565b610828826103ac565b67ffffffffffffffff8111156108415761084061047a565b5b61084b8254610652565b610856828285610796565b5f60209050601f831160018114610887575f8415610875578287015190505b61087f8582610804565b8655506108e6565b601f19841661089586610682565b5f5b828110156108bc57848901518255600182019150602085019450602081019050610897565b868310156108d957848901516108d5601f8916826107e8565b8355505b6001600288020188555050505b50505050505056fea264697066735822122013a4ec2cea505b48f67a4916ec3e4e32f3bc9074d35024e0f465d425d43cf4d364736f6c63430008140033",
  "immutableReferences": {},
  "source": "pragma solidity ^0.8.0;\r\n\r\ncontract Donations {\r\n  struct Donation {\r\n    uint id;\r\n    string donorName;\r\n    uint amount;\r\n  }\r\n\r\n  Donation[] public donations;\r\n\r\n  function donate(string memory _donorName, uint _amount) public {\r\n    donations.push(Donation(donations.length, _donorName, _amount));\r\n  }\r\n\r\n  function getDonation(uint _id) public view returns(uint, string memory, uint) {\r\n    Donation memory donation = donations[_id];\r\n    return (donation.id, donation.donorName, donation.amount);\r\n  }\r\n\r\n  function getDonationCount() public view returns (uint) {\r\n    return donations.length;\r\n  }\r\n}\r\n",
  "sourcePath": "F:\\7COMm\\7comm-febraban\\backend\\contracts\\Donations.sol",
  "compiler": {
    "name": "solc",
    "version": "0.8.20+commit.a1b79de6.Emscripten.clang"
  },
  "schemaVersion": "3.4.14",
  "updatedAt": "2023-06-20T18:01:02.808Z",
  "devdoc": {
    "kind": "dev",
    "methods": {},
    "version": 1
  },
  "userdoc": {
    "kind": "user",
    "methods": {},
    "version": 1
  }
}