{
  "contractName": "Donations",
  "abi": [
    {
      "inputs": [
        {
          "internalType": "uint256",
          "name": "",
          "type": "uint256"
        }
      ],
      "name": "donations",
      "outputs": [
        {
          "internalType": "uint256",
          "name": "id",
          "type": "uint256"
        },
        {
          "internalType": "string",
          "name": "donorName",
          "type": "string"
        },
        {
          "internalType": "uint256",
          "name": "amount",
          "type": "uint256"
        }
      ],
      "stateMutability": "view",
      "type": "function",
      "constant": true
    },
    {
      "inputs": [
        {
          "internalType": "string",
          "name": "_donorName",
          "type": "string"
        },
        {
          "internalType": "uint256",
          "name": "_amount",
          "type": "uint256"
        }
      ],
      "name": "donate",
      "outputs": [],
      "stateMutability": "nonpayable",
      "type": "function"
    },
    {
      "inputs": [
        {
          "internalType": "uint256",
          "name": "_id",
          "type": "uint256"
        }
      ],
      "name": "getDonation",
      "outputs": [
        {
          "internalType": "uint256",
          "name": "",
          "type": "uint256"
        },
        {
          "internalType": "string",
          "name": "",
          "type": "string"
        },
        {
          "internalType": "uint256",
          "name": "",
          "type": "uint256"
        }
      ],
      "stateMutability": "view",
      "type": "function",
      "constant": true
    },
    {
      "inputs": [],
      "name": "getDonationCount",
      "outputs": [
        {
          "internalType": "uint256",
          "name": "",
          "type": "uint256"
        }
      ],
      "stateMutability": "view",
      "type": "function",
      "constant": true
    }
  ],
  "bytecode": "0x608060405234801561001057600080fd5b50610753806100206000396000f3fe608060405234801561001057600080fd5b506004361061004c5760003560e01c8063e55a62a814610051578063ef07a81f1461006f578063efb21c59146100a1578063f8626af8146100bd575b600080fd5b6100596100ef565b6040516100669190610543565b60405180910390f35b610089600480360381019061008491906104d2565b6100fb565b6040516100989392919061055e565b60405180910390f35b6100bb60048036038101906100b6919061047e565b61021a565b005b6100d760048036038101906100d291906104d2565b61029c565b6040516100e69392919061055e565b60405180910390f35b60008080549050905090565b600060606000806000858154811061013c577f4e487b7100000000000000000000000000000000000000000000000000000000600052603260045260246000fd5b90600052602060002090600302016040518060600160405290816000820154815260200160018201805461016f90610665565b80601f016020809104026020016040519081016040528092919081815260200182805461019b90610665565b80156101e85780601f106101bd576101008083540402835291602001916101e8565b820191906000526020600020905b8154815290600101906020018083116101cb57829003601f168201915b505050505081526020016002820154815250509050806000015181602001518260400151935093509350509193909250565b60006040518060600160405280600080549050815260200184815260200183815250908060018154018082558091505060019003906000526020600020906003020160009091909190915060008201518160000155602082015181600101908051906020019061028b92919061035e565b506040820151816002015550505050565b600081815481106102ac57600080fd5b90600052602060002090600302016000915090508060000154908060010180546102d590610665565b80601f016020809104026020016040519081016040528092919081815260200182805461030190610665565b801561034e5780601f106103235761010080835404028352916020019161034e565b820191906000526020600020905b81548152906001019060200180831161033157829003601f168201915b5050505050908060020154905083565b82805461036a90610665565b90600052602060002090601f01602090048101928261038c57600085556103d3565b82601f106103a557805160ff19168380011785556103d3565b828001600101855582156103d3579182015b828111156103d25782518255916020019190600101906103b7565b5b5090506103e091906103e4565b5090565b5b808211156103fd5760008160009055506001016103e5565b5090565b600061041461040f846105cd565b61059c565b90508281526020810184848401111561042c57600080fd5b610437848285610623565b509392505050565b600082601f83011261045057600080fd5b8135610460848260208601610401565b91505092915050565b60008135905061047881610706565b92915050565b6000806040838503121561049157600080fd5b600083013567ffffffffffffffff8111156104ab57600080fd5b6104b78582860161043f565b92505060206104c885828601610469565b9150509250929050565b6000602082840312156104e457600080fd5b60006104f284828501610469565b91505092915050565b6000610506826105fd565b6105108185610608565b9350610520818560208601610632565b610529816106f5565b840191505092915050565b61053d81610619565b82525050565b60006020820190506105586000830184610534565b92915050565b60006060820190506105736000830186610534565b818103602083015261058581856104fb565b90506105946040830184610534565b949350505050565b6000604051905081810181811067ffffffffffffffff821117156105c3576105c26106c6565b5b8060405250919050565b600067ffffffffffffffff8211156105e8576105e76106c6565b5b601f19601f8301169050602081019050919050565b600081519050919050565b600082825260208201905092915050565b6000819050919050565b82818337600083830152505050565b60005b83811015610650578082015181840152602081019050610635565b8381111561065f576000848401525b50505050565b6000600282049050600182168061067d57607f821691505b6020821081141561069157610690610697565b5b50919050565b7f4e487b7100000000000000000000000000000000000000000000000000000000600052602260045260246000fd5b7f4e487b7100000000000000000000000000000000000000000000000000000000600052604160045260246000fd5b6000601f19601f8301169050919050565b61070f81610619565b811461071a57600080fd5b5056fea2646970667358221220f0b890ad19797744b2eec3e2e62229777867bcc9d49b29f2bb265b9b0b3e67ba64736f6c63430008000033",
  "immutableReferences": {},
  "source": "pragma solidity 0.8.0;\n\ncontract Donations {\n  struct Donation {\n    uint id;\n    string donorName;\n    uint amount;\n  }\n\n  Donation[] public donations;\n\n  function donate(string memory _donorName, uint _amount) public {\n    donations.push(Donation(donations.length, _donorName, _amount));\n  }\n\n  function getDonation(uint _id) public view returns(uint, string memory, uint) {\n    Donation memory donation = donations[_id];\n    return (donation.id, donation.donorName, donation.amount);\n  }\n\n  function getDonationCount() public view returns (uint) {\n    return donations.length;\n  }\n}\n",
  "sourcePath": "/opt/work/7comm-febraban/backend/contracts/Donations.sol",
  "compiler": {
    "name": "solc",
    "version": "0.8.0+commit.c7dfd78e.Emscripten.clang"
  },
  "schemaVersion": "3.4.14",
  "updatedAt": "2023-06-20T19:32:51.873Z",
  "networkType": "ethereum",
  "devdoc": {
    "kind": "dev",
    "methods": {},
    "version": 1
  },
  "userdoc": {
    "kind": "user",
    "methods": {},
    "version": 1
  }
}